{
  "_format": "hh-sol-artifact-1",
  "contractName": "BrokerFactory",
  "sourceName": "contracts/BrokerFactory.sol",
  "abi": [
    {
      "inputs": [
        {
          "internalType": "address",
          "name": "_exchangeConfig",
          "type": "address"
        },
        {
          "internalType": "address",
          "name": "_usdtAddress",
          "type": "address"
        }
      ],
      "stateMutability": "nonpayable",
      "type": "constructor"
    },
    {
      "anonymous": false,
      "inputs": [
        {
          "indexed": false,
          "internalType": "address",
          "name": "broker",
          "type": "address"
        },
        {
          "indexed": false,
          "internalType": "address",
          "name": "escrow",
          "type": "address"
        }
      ],
      "name": "DeployedEscrow",
      "type": "event"
    },
    {
      "anonymous": false,
      "inputs": [
        {
          "indexed": false,
          "internalType": "address",
          "name": "admin",
          "type": "address"
        },
        {
          "indexed": false,
          "internalType": "address",
          "name": "broker",
          "type": "address"
        }
      ],
      "name": "DisabledBroker",
      "type": "event"
    },
    {
      "anonymous": false,
      "inputs": [
        {
          "indexed": false,
          "internalType": "address",
          "name": "admin",
          "type": "address"
        },
        {
          "indexed": false,
          "internalType": "address",
          "name": "broker",
          "type": "address"
        }
      ],
      "name": "EnabledBroker",
      "type": "event"
    },
    {
      "anonymous": false,
      "inputs": [
        {
          "indexed": false,
          "internalType": "address",
          "name": "admin",
          "type": "address"
        },
        {
          "components": [
            {
              "internalType": "string",
              "name": "pubKey",
              "type": "string"
            },
            {
              "internalType": "address",
              "name": "escrow",
              "type": "address"
            },
            {
              "internalType": "address",
              "name": "addr",
              "type": "address"
            },
            {
              "internalType": "bool",
              "name": "active",
              "type": "bool"
            },
            {
              "components": [
                {
                  "internalType": "uint256",
                  "name": "minUsdt",
                  "type": "uint256"
                },
                {
                  "internalType": "uint256",
                  "name": "maxUsdt",
                  "type": "uint256"
                },
                {
                  "internalType": "uint256",
                  "name": "minInr",
                  "type": "uint256"
                },
                {
                  "internalType": "uint256",
                  "name": "maxInr",
                  "type": "uint256"
                }
              ],
              "internalType": "struct BrokerFactory.BrokerLimits",
              "name": "limits",
              "type": "tuple"
            }
          ],
          "indexed": false,
          "internalType": "struct BrokerFactory.Broker",
          "name": "broker",
          "type": "tuple"
        }
      ],
      "name": "ListedBroker",
      "type": "event"
    },
    {
      "anonymous": false,
      "inputs": [
        {
          "indexed": true,
          "internalType": "address",
          "name": "user",
          "type": "address"
        },
        {
          "indexed": true,
          "internalType": "address",
          "name": "broker",
          "type": "address"
        },
        {
          "indexed": false,
          "internalType": "uint256",
          "name": "orderId",
          "type": "uint256"
        },
        {
          "components": [
            {
              "internalType": "address",
              "name": "broker",
              "type": "address"
            },
            {
              "internalType": "address",
              "name": "user",
              "type": "address"
            },
            {
              "internalType": "address",
              "name": "recipientAddr",
              "type": "address"
            },
            {
              "internalType": "string",
              "name": "pubkey",
              "type": "string"
            },
            {
              "internalType": "string",
              "name": "encUpi",
              "type": "string"
            },
            {
              "internalType": "uint256",
              "name": "amount",
              "type": "uint256"
            },
            {
              "internalType": "uint256",
              "name": "inrAmount",
              "type": "uint256"
            },
            {
              "internalType": "uint256",
              "name": "placedTimestamp",
              "type": "uint256"
            },
            {
              "internalType": "uint256",
              "name": "completedTimestamp",
              "type": "uint256"
            },
            {
              "internalType": "enum BrokerFactory.OrderStatus",
              "name": "status",
              "type": "uint8"
            },
            {
              "internalType": "enum BrokerFactory.OrderType",
              "name": "orderType",
              "type": "uint8"
            },
            {
              "internalType": "uint256",
              "name": "id",
              "type": "uint256"
            }
          ],
          "indexed": false,
          "internalType": "struct BrokerFactory.Order",
          "name": "order",
          "type": "tuple"
        }
      ],
      "name": "OrderAccepted",
      "type": "event"
    },
    {
      "anonymous": false,
      "inputs": [
        {
          "indexed": true,
          "internalType": "address",
          "name": "user",
          "type": "address"
        },
        {
          "indexed": true,
          "internalType": "address",
          "name": "broker",
          "type": "address"
        },
        {
          "indexed": false,
          "internalType": "uint256",
          "name": "orderId",
          "type": "uint256"
        },
        {
          "components": [
            {
              "internalType": "address",
              "name": "broker",
              "type": "address"
            },
            {
              "internalType": "address",
              "name": "user",
              "type": "address"
            },
            {
              "internalType": "address",
              "name": "recipientAddr",
              "type": "address"
            },
            {
              "internalType": "string",
              "name": "pubkey",
              "type": "string"
            },
            {
              "internalType": "string",
              "name": "encUpi",
              "type": "string"
            },
            {
              "internalType": "uint256",
              "name": "amount",
              "type": "uint256"
            },
            {
              "internalType": "uint256",
              "name": "inrAmount",
              "type": "uint256"
            },
            {
              "internalType": "uint256",
              "name": "placedTimestamp",
              "type": "uint256"
            },
            {
              "internalType": "uint256",
              "name": "completedTimestamp",
              "type": "uint256"
            },
            {
              "internalType": "enum BrokerFactory.OrderStatus",
              "name": "status",
              "type": "uint8"
            },
            {
              "internalType": "enum BrokerFactory.OrderType",
              "name": "orderType",
              "type": "uint8"
            },
            {
              "internalType": "uint256",
              "name": "id",
              "type": "uint256"
            }
          ],
          "indexed": false,
          "internalType": "struct BrokerFactory.Order",
          "name": "order",
          "type": "tuple"
        }
      ],
      "name": "OrderComplete",
      "type": "event"
    },
    {
      "anonymous": false,
      "inputs": [
        {
          "indexed": false,
          "internalType": "address",
          "name": "user",
          "type": "address"
        },
        {
          "indexed": false,
          "internalType": "address",
          "name": "broker",
          "type": "address"
        },
        {
          "indexed": false,
          "internalType": "uint256",
          "name": "orderId",
          "type": "uint256"
        },
        {
          "components": [
            {
              "internalType": "address",
              "name": "broker",
              "type": "address"
            },
            {
              "internalType": "address",
              "name": "user",
              "type": "address"
            },
            {
              "internalType": "address",
              "name": "recipientAddr",
              "type": "address"
            },
            {
              "internalType": "string",
              "name": "pubkey",
              "type": "string"
            },
            {
              "internalType": "string",
              "name": "encUpi",
              "type": "string"
            },
            {
              "internalType": "uint256",
              "name": "amount",
              "type": "uint256"
            },
            {
              "internalType": "uint256",
              "name": "inrAmount",
              "type": "uint256"
            },
            {
              "internalType": "uint256",
              "name": "placedTimestamp",
              "type": "uint256"
            },
            {
              "internalType": "uint256",
              "name": "completedTimestamp",
              "type": "uint256"
            },
            {
              "internalType": "enum BrokerFactory.OrderStatus",
              "name": "status",
              "type": "uint8"
            },
            {
              "internalType": "enum BrokerFactory.OrderType",
              "name": "orderType",
              "type": "uint8"
            },
            {
              "internalType": "uint256",
              "name": "id",
              "type": "uint256"
            }
          ],
          "indexed": false,
          "internalType": "struct BrokerFactory.Order",
          "name": "order",
          "type": "tuple"
        }
      ],
      "name": "OrderPaid",
      "type": "event"
    },
    {
      "anonymous": false,
      "inputs": [
        {
          "indexed": false,
          "internalType": "address",
          "name": "user",
          "type": "address"
        },
        {
          "indexed": false,
          "internalType": "address",
          "name": "broker",
          "type": "address"
        },
        {
          "indexed": false,
          "internalType": "uint256",
          "name": "orderId",
          "type": "uint256"
        },
        {
          "components": [
            {
              "internalType": "address",
              "name": "broker",
              "type": "address"
            },
            {
              "internalType": "address",
              "name": "user",
              "type": "address"
            },
            {
              "internalType": "address",
              "name": "recipientAddr",
              "type": "address"
            },
            {
              "internalType": "string",
              "name": "pubkey",
              "type": "string"
            },
            {
              "internalType": "string",
              "name": "encUpi",
              "type": "string"
            },
            {
              "internalType": "uint256",
              "name": "amount",
              "type": "uint256"
            },
            {
              "internalType": "uint256",
              "name": "inrAmount",
              "type": "uint256"
            },
            {
              "internalType": "uint256",
              "name": "placedTimestamp",
              "type": "uint256"
            },
            {
              "internalType": "uint256",
              "name": "completedTimestamp",
              "type": "uint256"
            },
            {
              "internalType": "enum BrokerFactory.OrderStatus",
              "name": "status",
              "type": "uint8"
            },
            {
              "internalType": "enum BrokerFactory.OrderType",
              "name": "orderType",
              "type": "uint8"
            },
            {
              "internalType": "uint256",
              "name": "id",
              "type": "uint256"
            }
          ],
          "indexed": false,
          "internalType": "struct BrokerFactory.Order",
          "name": "order",
          "type": "tuple"
        }
      ],
      "name": "OrderPlaced",
      "type": "event"
    },
    {
      "anonymous": false,
      "inputs": [
        {
          "indexed": false,
          "internalType": "address",
          "name": "broker",
          "type": "address"
        },
        {
          "components": [
            {
              "internalType": "uint256",
              "name": "minUsdt",
              "type": "uint256"
            },
            {
              "internalType": "uint256",
              "name": "maxUsdt",
              "type": "uint256"
            },
            {
              "internalType": "uint256",
              "name": "minInr",
              "type": "uint256"
            },
            {
              "internalType": "uint256",
              "name": "maxInr",
              "type": "uint256"
            }
          ],
          "indexed": false,
          "internalType": "struct BrokerFactory.BrokerLimits",
          "name": "limits",
          "type": "tuple"
        }
      ],
      "name": "UpdatedBrokerLimits",
      "type": "event"
    },
    {
      "inputs": [
        {
          "internalType": "uint256",
          "name": "_orderId",
          "type": "uint256"
        },
        {
          "internalType": "string",
          "name": "_userEncUpi",
          "type": "string"
        }
      ],
      "name": "acceptBuyOrder",
      "outputs": [],
      "stateMutability": "nonpayable",
      "type": "function"
    },
    {
      "inputs": [
        {
          "internalType": "uint256",
          "name": "",
          "type": "uint256"
        }
      ],
      "name": "brokerIdAddress",
      "outputs": [
        {
          "internalType": "address",
          "name": "",
          "type": "address"
        }
      ],
      "stateMutability": "view",
      "type": "function"
    },
    {
      "inputs": [
        {
          "internalType": "address",
          "name": "",
          "type": "address"
        },
        {
          "internalType": "uint256",
          "name": "",
          "type": "uint256"
        }
      ],
      "name": "brokerOrders",
      "outputs": [
        {
          "internalType": "uint256",
          "name": "",
          "type": "uint256"
        }
      ],
      "stateMutability": "view",
      "type": "function"
    },
    {
      "inputs": [
        {
          "internalType": "address",
          "name": "",
          "type": "address"
        }
      ],
      "name": "brokers",
      "outputs": [
        {
          "internalType": "string",
          "name": "pubKey",
          "type": "string"
        },
        {
          "internalType": "address",
          "name": "escrow",
          "type": "address"
        },
        {
          "internalType": "address",
          "name": "addr",
          "type": "address"
        },
        {
          "internalType": "bool",
          "name": "active",
          "type": "bool"
        },
        {
          "components": [
            {
              "internalType": "uint256",
              "name": "minUsdt",
              "type": "uint256"
            },
            {
              "internalType": "uint256",
              "name": "maxUsdt",
              "type": "uint256"
            },
            {
              "internalType": "uint256",
              "name": "minInr",
              "type": "uint256"
            },
            {
              "internalType": "uint256",
              "name": "maxInr",
              "type": "uint256"
            }
          ],
          "internalType": "struct BrokerFactory.BrokerLimits",
          "name": "limits",
          "type": "tuple"
        }
      ],
      "stateMutability": "view",
      "type": "function"
    },
    {
      "inputs": [
        {
          "internalType": "address",
          "name": "",
          "type": "address"
        }
      ],
      "name": "commitments",
      "outputs": [
        {
          "internalType": "uint256",
          "name": "",
          "type": "uint256"
        }
      ],
      "stateMutability": "view",
      "type": "function"
    },
    {
      "inputs": [
        {
          "internalType": "uint256",
          "name": "_orderId",
          "type": "uint256"
        }
      ],
      "name": "completeOrder",
      "outputs": [],
      "stateMutability": "nonpayable",
      "type": "function"
    },
    {
      "inputs": [
        {
          "internalType": "address",
          "name": "_brokerAddr",
          "type": "address"
        }
      ],
      "name": "disableBroker",
      "outputs": [],
      "stateMutability": "nonpayable",
      "type": "function"
    },
    {
      "inputs": [
        {
          "internalType": "address",
          "name": "_brokerAddr",
          "type": "address"
        }
      ],
      "name": "enableBroker",
      "outputs": [],
      "stateMutability": "nonpayable",
      "type": "function"
    },
    {
      "inputs": [],
      "name": "exchangeConfig",
      "outputs": [
        {
          "internalType": "contract P2pxConfig",
          "name": "",
          "type": "address"
        }
      ],
      "stateMutability": "view",
      "type": "function"
    },
    {
      "inputs": [],
      "name": "fetchBrokerForOrder",
      "outputs": [
        {
          "components": [
            {
              "internalType": "string",
              "name": "pubKey",
              "type": "string"
            },
            {
              "internalType": "address",
              "name": "escrow",
              "type": "address"
            },
            {
              "internalType": "address",
              "name": "addr",
              "type": "address"
            },
            {
              "internalType": "bool",
              "name": "active",
              "type": "bool"
            },
            {
              "components": [
                {
                  "internalType": "uint256",
                  "name": "minUsdt",
                  "type": "uint256"
                },
                {
                  "internalType": "uint256",
                  "name": "maxUsdt",
                  "type": "uint256"
                },
                {
                  "internalType": "uint256",
                  "name": "minInr",
                  "type": "uint256"
                },
                {
                  "internalType": "uint256",
                  "name": "maxInr",
                  "type": "uint256"
                }
              ],
              "internalType": "struct BrokerFactory.BrokerLimits",
              "name": "limits",
              "type": "tuple"
            }
          ],
          "internalType": "struct BrokerFactory.Broker",
          "name": "",
          "type": "tuple"
        }
      ],
      "stateMutability": "view",
      "type": "function"
    },
    {
      "inputs": [
        {
          "components": [
            {
              "internalType": "string",
              "name": "pubKey",
              "type": "string"
            },
            {
              "internalType": "address",
              "name": "escrow",
              "type": "address"
            },
            {
              "internalType": "address",
              "name": "addr",
              "type": "address"
            },
            {
              "internalType": "bool",
              "name": "active",
              "type": "bool"
            },
            {
              "components": [
                {
                  "internalType": "uint256",
                  "name": "minUsdt",
                  "type": "uint256"
                },
                {
                  "internalType": "uint256",
                  "name": "maxUsdt",
                  "type": "uint256"
                },
                {
                  "internalType": "uint256",
                  "name": "minInr",
                  "type": "uint256"
                },
                {
                  "internalType": "uint256",
                  "name": "maxInr",
                  "type": "uint256"
                }
              ],
              "internalType": "struct BrokerFactory.BrokerLimits",
              "name": "limits",
              "type": "tuple"
            }
          ],
          "internalType": "struct BrokerFactory.Broker",
          "name": "_broker",
          "type": "tuple"
        }
      ],
      "name": "listBroker",
      "outputs": [],
      "stateMutability": "nonpayable",
      "type": "function"
    },
    {
      "inputs": [
        {
          "internalType": "uint256",
          "name": "",
          "type": "uint256"
        }
      ],
      "name": "orders",
      "outputs": [
        {
          "internalType": "address",
          "name": "broker",
          "type": "address"
        },
        {
          "internalType": "address",
          "name": "user",
          "type": "address"
        },
        {
          "internalType": "address",
          "name": "recipientAddr",
          "type": "address"
        },
        {
          "internalType": "string",
          "name": "pubkey",
          "type": "string"
        },
        {
          "internalType": "string",
          "name": "encUpi",
          "type": "string"
        },
        {
          "internalType": "uint256",
          "name": "amount",
          "type": "uint256"
        },
        {
          "internalType": "uint256",
          "name": "inrAmount",
          "type": "uint256"
        },
        {
          "internalType": "uint256",
          "name": "placedTimestamp",
          "type": "uint256"
        },
        {
          "internalType": "uint256",
          "name": "completedTimestamp",
          "type": "uint256"
        },
        {
          "internalType": "enum BrokerFactory.OrderStatus",
          "name": "status",
          "type": "uint8"
        },
        {
          "internalType": "enum BrokerFactory.OrderType",
          "name": "orderType",
          "type": "uint8"
        },
        {
          "internalType": "uint256",
          "name": "id",
          "type": "uint256"
        }
      ],
      "stateMutability": "view",
      "type": "function"
    },
    {
      "inputs": [
        {
          "internalType": "uint256",
          "name": "_orderId",
          "type": "uint256"
        }
      ],
      "name": "paidBuyOrder",
      "outputs": [],
      "stateMutability": "nonpayable",
      "type": "function"
    },
    {
      "inputs": [
        {
          "internalType": "address",
          "name": "_brokerAddr",
          "type": "address"
        },
        {
          "internalType": "string",
          "name": "_pubKey",
          "type": "string"
        },
        {
          "internalType": "uint256",
          "name": "_amount",
          "type": "uint256"
        },
        {
          "internalType": "address",
          "name": "_recipientAddr",
          "type": "address"
        },
        {
          "internalType": "enum BrokerFactory.OrderType",
          "name": "_orderType",
          "type": "uint8"
        },
        {
          "internalType": "string",
          "name": "_userUpi",
          "type": "string"
        }
      ],
      "name": "placeOrder",
      "outputs": [],
      "stateMutability": "nonpayable",
      "type": "function"
    },
    {
      "inputs": [
        {
          "internalType": "address",
          "name": "_brokerAddr",
          "type": "address"
        },
        {
          "components": [
            {
              "internalType": "uint256",
              "name": "minUsdt",
              "type": "uint256"
            },
            {
              "internalType": "uint256",
              "name": "maxUsdt",
              "type": "uint256"
            },
            {
              "internalType": "uint256",
              "name": "minInr",
              "type": "uint256"
            },
            {
              "internalType": "uint256",
              "name": "maxInr",
              "type": "uint256"
            }
          ],
          "internalType": "struct BrokerFactory.BrokerLimits",
          "name": "_limits",
          "type": "tuple"
        }
      ],
      "name": "updateBrokerLimits",
      "outputs": [],
      "stateMutability": "nonpayable",
      "type": "function"
    },
    {
      "inputs": [],
      "name": "usdtAddress",
      "outputs": [
        {
          "internalType": "address",
          "name": "",
          "type": "address"
        }
      ],
      "stateMutability": "view",
      "type": "function"
    },
    {
      "inputs": [
        {
          "internalType": "address",
          "name": "",
          "type": "address"
        },
        {
          "internalType": "uint256",
          "name": "",
          "type": "uint256"
        }
      ],
      "name": "userOrders",
      "outputs": [
        {
          "internalType": "uint256",
          "name": "",
          "type": "uint256"
        }
      ],
      "stateMutability": "view",
      "type": "function"
    },
    {
      "inputs": [
        {
          "internalType": "address",
          "name": "_user",
          "type": "address"
        }
      ],
      "name": "userOrdersArr",
      "outputs": [
        {
          "components": [
            {
              "internalType": "address",
              "name": "broker",
              "type": "address"
            },
            {
              "internalType": "address",
              "name": "user",
              "type": "address"
            },
            {
              "internalType": "address",
              "name": "recipientAddr",
              "type": "address"
            },
            {
              "internalType": "string",
              "name": "pubkey",
              "type": "string"
            },
            {
              "internalType": "string",
              "name": "encUpi",
              "type": "string"
            },
            {
              "internalType": "uint256",
              "name": "amount",
              "type": "uint256"
            },
            {
              "internalType": "uint256",
              "name": "inrAmount",
              "type": "uint256"
            },
            {
              "internalType": "uint256",
              "name": "placedTimestamp",
              "type": "uint256"
            },
            {
              "internalType": "uint256",
              "name": "completedTimestamp",
              "type": "uint256"
            },
            {
              "internalType": "enum BrokerFactory.OrderStatus",
              "name": "status",
              "type": "uint8"
            },
            {
              "internalType": "enum BrokerFactory.OrderType",
              "name": "orderType",
              "type": "uint8"
            },
            {
              "internalType": "uint256",
              "name": "id",
              "type": "uint256"
            }
          ],
          "internalType": "struct BrokerFactory.Order[]",
          "name": "",
          "type": "tuple[]"
        }
      ],
      "stateMutability": "view",
      "type": "function"
    },
    {
      "inputs": [
        {
          "internalType": "address",
          "name": "",
          "type": "address"
        }
      ],
      "name": "userOrdersLen",
      "outputs": [
        {
          "internalType": "uint256",
          "name": "",
          "type": "uint256"
        }
      ],
      "stateMutability": "view",
      "type": "function"
    }
  ],
  "bytecode": "0x60806040523480156200001157600080fd5b506040516200365438038062003654833981016040819052620000349162000083565b600080546001600160a01b039384166001600160a01b031991821617909155600b8054929093169116179055620000bb565b80516001600160a01b03811681146200007e57600080fd5b919050565b600080604083850312156200009757600080fd5b620000a28362000066565b9150620000b26020840162000066565b90509250929050565b61358980620000cb6000396000f3fe608060405234801561001057600080fd5b50600436106101515760003560e01c806366874cc5116100cd578063a85c38ef11610081578063b6adaaff11610066578063b6adaaff1461030e578063e8fcf72314610321578063f35b45a31461034157600080fd5b8063a85c38ef146102d0578063b641ae60146102fb57600080fd5b806395b04a8d116100b257806395b04a8d146102745780639ab4a4451461029d5780639ba18bf8146102b057600080fd5b806366874cc51461023d578063856652e91461026157600080fd5b80631e31508e11610124578063420e18ee11610109578063420e18ee146102025780634949a60914610215578063613802651461022857600080fd5b80631e31508e146101dc578063203777d8146101ef57600080fd5b8063048db3ea146101565780630e2789bb1461016b5780630fe36b631461019b5780631a895c60146101ae575b600080fd5b610169610164366004612a2e565b610354565b005b60005461017e906001600160a01b031681565b6040516001600160a01b0390911681526020015b60405180910390f35b6101696101a9366004612a2e565b610598565b6101ce6101bc366004612a2e565b60046020526000908152604090205481565b604051908152602001610192565b6101696101ea366004612a50565b6107d1565b6101ce6101fd366004612a69565b610b61565b610169610210366004612b5f565b610b92565b610169610223366004612ba6565b610cc8565b61023061162b565b6040516101929190612d15565b61025061024b366004612a2e565b611a26565b604051610192959493929190612d28565b6101ce61026f366004612a69565b611b1c565b61017e610282366004612a50565b6008602052600090815260409020546001600160a01b031681565b600b5461017e906001600160a01b031681565b6102c36102be366004612a2e565b611b38565b6040516101929190612eb5565b6102e36102de366004612a50565b611ed4565b6040516101929c9b9a99989796959493929190612f17565b610169610309366004613015565b612058565b61016961031c366004612a50565b612287565b6101ce61032f366004612a2e565b60066020526000908152604090205481565b61016961034f36600461305a565b612681565b600054604051630935e01b60e21b81523360048201526001600160a01b03909116906324d7806c90602401602060405180830381865afa15801561039c573d6000803e3d6000fd5b505050506040513d601f19601f820116820180604052508101906103c09190613112565b15156001146104025760405162461bcd60e51b81526020600482015260096024820152682737ba1030b236b4b760b91b60448201526064015b60405180910390fd5b6001600160a01b0381166104515760405162461bcd60e51b8152602060048201526016602482015275496e76616c69642062726f6b6572206164647265737360501b60448201526064016103f9565b6001600160a01b03818116600090815260016020526040902060020154166104bb5760405162461bcd60e51b815260206004820152601160248201527f42726f6b6572206e6f74206c697374656400000000000000000000000000000060448201526064016103f9565b6001600160a01b038116600090815260016020819052604090912060020154600160a01b900460ff161515146105335760405162461bcd60e51b815260206004820152601760248201527f42726f6b657220616c726561647920696e61637469766500000000000000000060448201526064016103f9565b6001600160a01b038116600081815260016020908152604091829020600201805460ff60a01b191690558151338152908101929092527ffb99390e9b6790a1ec71642e2127b4d3a48564310eca77d4e1c7e3c3f54ca71e91015b60405180910390a150565b600054604051630935e01b60e21b81523360048201526001600160a01b03909116906324d7806c90602401602060405180830381865afa1580156105e0573d6000803e3d6000fd5b505050506040513d601f19601f820116820180604052508101906106049190613112565b15156001146106415760405162461bcd60e51b81526020600482015260096024820152682737ba1030b236b4b760b91b60448201526064016103f9565b6001600160a01b0381166106905760405162461bcd60e51b8152602060048201526016602482015275496e76616c69642062726f6b6572206164647265737360501b60448201526064016103f9565b6001600160a01b03818116600090815260016020526040902060020154166106fa5760405162461bcd60e51b815260206004820152601160248201527f42726f6b6572206e6f74206c697374656400000000000000000000000000000060448201526064016103f9565b6001600160a01b038116600090815260016020526040902060020154600160a01b900460ff161561076d5760405162461bcd60e51b815260206004820152601560248201527f42726f6b657220616c726561647920616374697665000000000000000000000060448201526064016103f9565b6001600160a01b038116600081815260016020908152604091829020600201805460ff60a01b1916600160a01b1790558151338152908101929092527f1a09336229b1ee03b3886acf8fe160ff9bd06c929273d60e1aa6dcfc6e1809c3910161058d565b600081815260026020818152604080842081516101808101835281546001600160a01b039081168252600183015481169482019490945293810154909216908301526003810180546060840191906108289061312f565b80601f01602080910402602001604051908101604052809291908181526020018280546108549061312f565b80156108a15780601f10610876576101008083540402835291602001916108a1565b820191906000526020600020905b81548152906001019060200180831161088457829003601f168201915b505050505081526020016004820180546108ba9061312f565b80601f01602080910402602001604051908101604052809291908181526020018280546108e69061312f565b80156109335780601f1061090857610100808354040283529160200191610933565b820191906000526020600020905b81548152906001019060200180831161091657829003601f168201915b505050918352505060058201546020820152600682015460408201526007820154606082015260088201546080820152600982015460a09091019060ff16600381111561098257610982612d97565b600381111561099357610993612d97565b81526020016009820160019054906101000a900460ff1660018111156109bb576109bb612d97565b60018111156109cc576109cc612d97565b8152600a91909101546020918201528101519091506001600160a01b03163314610a295760405162461bcd60e51b815260206004820152600e60248201526d139bdd08185d5d1a1bdc9a5cd95960921b60448201526064016103f9565b60008161014001516001811115610a4257610a42612d97565b14610a8f5760405162461bcd60e51b815260206004820152601460248201527f4f72646572207479706520696e636f727265637400000000000000000000000060448201526064016103f9565b60018161012001516003811115610aa857610aa8612d97565b14610af55760405162461bcd60e51b815260206004820152601560248201527f4f72646572206973206e6f74206163636570746564000000000000000000000060448201526064016103f9565b600261012082018190526000838152602082905260409020600901805460ff1916600183021790555080516040517f94389e7ea9349b1fad0a73abafc421fad9ca4c246d679d3d73359f35590ce8d691610b559133919086908690613169565b60405180910390a15050565b60056020528160005260406000208181548110610b7d57600080fd5b90600052602060002001600091509150505481565b600082815260026020526040902080546001600160a01b03163314610bea5760405162461bcd60e51b815260206004820152600e60248201526d139bdd08185d5d1a1bdc9a5cd95960921b60448201526064016103f9565b6000600982015460ff166003811115610c0557610c05612d97565b14610c525760405162461bcd60e51b815260206004820152601f60248201527f4f72646572206e6f7420706c6163656420746f2062652061636365707465640060448201526064016103f9565b60048101610c6083826131ea565b5060098101805460ff191660019081179091558154908201546040516001600160a01b0392831692909116907fe49c81e3b1ecaddcbaf12f9e51aba62223a8632c57103bb899517cead0cdedc990610cbb9087908690613406565b60405180910390a3505050565b60008054906101000a90046001600160a01b03166001600160a01b031663150150226040518163ffffffff1660e01b8152600401602060405180830381865afa158015610d19573d6000803e3d6000fd5b505050506040513d601f19601f82011682018060405250810190610d3d9190613112565b1515600114610d8e5760405162461bcd60e51b815260206004820152601c60248201527f45786368616e6765206e6f74206f7065726174696f6e616c2061746d0000000060448201526064016103f9565b838060008054906101000a90046001600160a01b03166001600160a01b0316630cf3772a6040518163ffffffff1660e01b8152600401602060405180830381865afa158015610de1573d6000803e3d6000fd5b505050506040513d601f19601f82011682018060405250810190610e059190613427565b1015610e535760405162461bcd60e51b815260206004820152601e60248201527f416d6f756e7420657863656564732065786368616e6765206c696d697421000060448201526064016103f9565b6001600160a01b038716600090815260016020526040808220815160a08101909252805482908290610e849061312f565b80601f0160208091040260200160405190810160405280929190818152602001828054610eb09061312f565b8015610efd5780601f10610ed257610100808354040283529160200191610efd565b820191906000526020600020905b815481529060010190602001808311610ee057829003601f168201915b50505091835250506001828101546001600160a01b039081166020808501919091526002850154918216604080860191909152600160a01b90920460ff1615156060808601919091528251608080820185526003880154825260048801549382019390935260058701549381019390935260069095015482860152909201919091529082015191925090151514610fd65760405162461bcd60e51b815260206004820152600f60248201527f42726f6b657220696e616374697665000000000000000000000000000000000060448201526064016103f9565b60208101516001600160a01b03166110305760405162461bcd60e51b815260206004820152600e60248201527f457363726f77206e6f742073657400000000000000000000000000000000000060448201526064016103f9565b600084600181111561104457611044612d97565b0361107c576020808201516001600160a01b031660009081526006909152604081208054889290611076908490613456565b90915550505b3360008181526003602090815260408083206007805482546001818101855593875285872001556001600160a01b038e168552600584528285209054815480840183559186528486209091015593835260049091529020546110dd91613456565b3360009081526004602052604081209190915584600181111561110257611102612d97565b03611351576000805460408051631debf74b60e31b81529051620f4240926001600160a01b03169163ef5fba589160048083019260209291908290030181865afa158015611154573d6000803e3d6000fd5b505050506040513d601f19601f820116820180604052508101906111789190613427565b611182908961346f565b61118c9190613486565b90506040518061018001604052808a6001600160a01b03168152602001336001600160a01b03168152602001876001600160a01b03168152602001898152602001604051806020016040528060008152508152602001888152602001828152602001428152602001600081526020016000600381111561120e5761120e612d97565b815260200186600181111561122557611225612d97565b81526007546020918201819052600090815260028083526040918290208451815473ffffffffffffffffffffffffffffffffffffffff199081166001600160a01b039283161783559486015160018301805487169183169190911790559285015191810180549094169190921617909155606082015160038201906112aa90826131ea565b50608082015160048201906112bf90826131ea565b5060a0820151600582015560c0820151600682015560e08201516007820155610100820151600882015561012082015160098201805460ff1916600183600381111561130d5761130d612d97565b021790555061014082015160098201805461ff00191661010083600181111561133857611338612d97565b021790555061016082015181600a015590505050611598565b60008054604080516302a1b64d60e11b81529051620f4240926001600160a01b0316916305436c9a9160048083019260209291908290030181865afa15801561139e573d6000803e3d6000fd5b505050506040513d601f19601f820116820180604052508101906113c29190613427565b6113cc908961346f565b6113d69190613486565b90506040518061018001604052808a6001600160a01b03168152602001336001600160a01b0316815260200160006001600160a01b03168152602001604051806020016040528060008152508152602001858152602001888152602001828152602001428152602001600081526020016000600381111561145957611459612d97565b815260200186600181111561147057611470612d97565b81526007546020918201819052600090815260028083526040918290208451815473ffffffffffffffffffffffffffffffffffffffff199081166001600160a01b039283161783559486015160018301805487169183169190911790559285015191810180549094169190921617909155606082015160038201906114f590826131ea565b506080820151600482019061150a90826131ea565b5060a0820151600582015560c0820151600682015560e08201516007820155610100820151600882015561012082015160098201805460ff1916600183600381111561155857611558612d97565b021790555061014082015160098201805461ff00191661010083600181111561158357611583612d97565b021790555061016082015181600a0155905050505b600a80549060006115a8836134a8565b9190505550600954600a54106115be576000600a555b6007546000818152600260205260409081902090517f289ca9f163f2d32dcfb667d62149927a8f9b18914357fe05307ecf698ba7d2e8926116049233928d9291906134c1565b60405180910390a16007805490600061161c836134a8565b91905055505050505050505050565b61163361291a565b600a546000818152600860209081526040808320546001600160a01b03168084526001909252808320815160a081019092528054929392829082906116779061312f565b80601f01602080910402602001604051908101604052809291908181526020018280546116a39061312f565b80156116f05780601f106116c5576101008083540402835291602001916116f0565b820191906000526020600020905b8154815290600101906020018083116116d357829003601f168201915b505050918352505060018201546001600160a01b039081166020808401919091526002840154918216604080850191909152600160a01b90920460ff1615156060808501919091528251608080820185526003870154825260048701549382019390935260058601549381019390935260069094015493820193909352910152905060005b81606001516118f25783611788816134a8565b9450508015801561179b57506009548410155b156117a857506000925060015b6000848152600860209081526040808320546001600160a01b0316808452600190925291829020825160a08101909352805491955090829082906117eb9061312f565b80601f01602080910402602001604051908101604052809291908181526020018280546118179061312f565b80156118645780601f1061183957610100808354040283529160200191611864565b820191906000526020600020905b81548152906001019060200180831161184757829003601f168201915b505050918352505060018201546001600160a01b039081166020808401919091526002840154808316604080860191909152600160a01b90910460ff1615156060808601919091528151608080820184526003880154825260048801549482019490945260058701549281019290925260069095015494810194909452909101919091529092508316611775575b6001600160a01b03831660009081526001602052604090819020815160a081019092528054829082906119249061312f565b80601f01602080910402602001604051908101604052809291908181526020018280546119509061312f565b801561199d5780601f106119725761010080835404028352916020019161199d565b820191906000526020600020905b81548152906001019060200180831161198057829003601f168201915b505050918352505060018201546001600160a01b039081166020808401919091526002840154918216604080850191909152600160a01b90920460ff161515606080850191909152825160808082018552600387015482526004870154938201939093526005860154938101939093526006909401549382019390935291015295945050505050565b600160205260009081526040902080548190611a419061312f565b80601f0160208091040260200160405190810160405280929190818152602001828054611a6d9061312f565b8015611aba5780601f10611a8f57610100808354040283529160200191611aba565b820191906000526020600020905b815481529060010190602001808311611a9d57829003601f168201915b5050505060018301546002840154604080516080810182526003870154815260048701546020820152600587015491810191909152600690950154606086015292936001600160a01b03918216939182169250600160a01b90910460ff169085565b60036020528160005260406000208181548110610b7d57600080fd5b6001600160a01b03811660009081526004602052604090205460609080611ba15760405162461bcd60e51b815260206004820152601460248201527f4e6f206f726465727320746f2072657475726e2100000000000000000000000060448201526064016103f9565b60008167ffffffffffffffff811115611bbc57611bbc612a93565b604051908082528060200260200182016040528015611bf557816020015b611be2612985565b815260200190600190039081611bda5790505b506001600160a01b038516600090815260036020908152604080832080548251818502810185019093528083529495509293909291830182828015611c5957602002820191906000526020600020905b815481526020019060010190808311611c45575b5050505050905060005b83811015611eca5760026000838381518110611c8157611c816134f3565b602090810291909101810151825281810192909252604090810160002081516101808101835281546001600160a01b0390811682526001830154811694820194909452600282015490931691830191909152600381018054606084019190611ce89061312f565b80601f0160208091040260200160405190810160405280929190818152602001828054611d149061312f565b8015611d615780601f10611d3657610100808354040283529160200191611d61565b820191906000526020600020905b815481529060010190602001808311611d4457829003601f168201915b50505050508152602001600482018054611d7a9061312f565b80601f0160208091040260200160405190810160405280929190818152602001828054611da69061312f565b8015611df35780601f10611dc857610100808354040283529160200191611df3565b820191906000526020600020905b815481529060010190602001808311611dd657829003601f168201915b505050918352505060058201546020820152600682015460408201526007820154606082015260088201546080820152600982015460a09091019060ff166003811115611e4257611e42612d97565b6003811115611e5357611e53612d97565b81526020016009820160019054906101000a900460ff166001811115611e7b57611e7b612d97565b6001811115611e8c57611e8c612d97565b8152602001600a82015481525050838281518110611eac57611eac6134f3565b60200260200101819052508080611ec2906134a8565b915050611c63565b5090949350505050565b600260208190526000918252604090912080546001820154928201546003830180546001600160a01b03938416958416949290931692611f139061312f565b80601f0160208091040260200160405190810160405280929190818152602001828054611f3f9061312f565b8015611f8c5780601f10611f6157610100808354040283529160200191611f8c565b820191906000526020600020905b815481529060010190602001808311611f6f57829003601f168201915b505050505090806004018054611fa19061312f565b80601f0160208091040260200160405190810160405280929190818152602001828054611fcd9061312f565b801561201a5780601f10611fef5761010080835404028352916020019161201a565b820191906000526020600020905b815481529060010190602001808311611ffd57829003601f168201915b50505060058401546006850154600786015460088701546009880154600a90980154969793969295509093509160ff8082169261010090920416908c565b600054604051630935e01b60e21b81523360048201526001600160a01b03909116906324d7806c90602401602060405180830381865afa1580156120a0573d6000803e3d6000fd5b505050506040513d601f19601f820116820180604052508101906120c49190613112565b15156001146121015760405162461bcd60e51b81526020600482015260096024820152682737ba1030b236b4b760b91b60448201526064016103f9565b6001600160a01b0382166121505760405162461bcd60e51b8152602060048201526016602482015275496e76616c69642062726f6b6572206164647265737360501b60448201526064016103f9565b805115801590612164575080516020820151115b6121b05760405162461bcd60e51b815260206004820152601a60248201527f496e76616c6964207573647420616d6f756e74206c696d69747300000000000060448201526064016103f9565b600081604001511180156121cb575080604001518160600151115b6122175760405162461bcd60e51b815260206004820152601960248201527f496e76616c696420696e7220616d6f756e74206c696d6974730000000000000060448201526064016103f9565b6001600160a01b038216600090815260016020908152604091829020835160038201559083015160048201558183015160058201556060830151600690910155517f7ef9044700953c856443350e7e07b74ee9dc703abb7fadab875e1a0e284154ca90610b559084908490613509565b600081815260026020526040902080546001600160a01b03163314806123145750600054604051630935e01b60e21b81523360048201526001600160a01b03909116906324d7806c90602401602060405180830381865afa1580156122f0573d6000803e3d6000fd5b505050506040513d601f19601f820116820180604052508101906123149190613112565b6123515760405162461bcd60e51b815260206004820152600e60248201526d139bdd08185d5d1a1bdc9a5cd95960921b60448201526064016103f9565b60006009820154610100900460ff16600181111561237157612371612d97565b03612409576002600982015460ff16600381111561239157612391612d97565b146124045760405162461bcd60e51b815260206004820152602b60248201527f4f6e6c79207061696420627579206f72646572732063616e206265206d61726b60448201527f656420636f6d706c65746500000000000000000000000000000000000000000060648201526084016103f9565b612497565b6000600982015460ff16600381111561242457612424612d97565b146124975760405162461bcd60e51b815260206004820152602e60248201527f4f6e6c7920706c616365642073656c6c206f72646572732063616e206265206d60448201527f61726b656420636f6d706c65746500000000000000000000000000000000000060648201526084016103f9565b60098101805460ff19166003179081905542600883015560009060ff6101009091041660018111156124cb576124cb612d97565b0361262c5780546001600160a01b0316600090815260016020526040808220815160a081019092528054829082906125029061312f565b80601f016020809104026020016040519081016040528092919081815260200182805461252e9061312f565b801561257b5780601f106125505761010080835404028352916020019161257b565b820191906000526020600020905b81548152906001019060200180831161255e57829003601f168201915b505050918352505060018201546001600160a01b039081166020808401919091526002840154808316604080860191909152600160a01b90910460ff161515606080860191909152815160808082018452600388015482526004880154828601526005808901548386015260069889015493830193909352909501949094529287015485820151909216600090815293905290822080549394509092909190612625908490613547565b9091555050505b805460018201546040516001600160a01b0392831692909116907f99b38a981428369ab5be90ead77435bff92669aa97bc0e24f95f8a22c1907313906126759086908690613406565b60405180910390a35050565b600054604051630935e01b60e21b81523360048201526001600160a01b03909116906324d7806c90602401602060405180830381865afa1580156126c9573d6000803e3d6000fd5b505050506040513d601f19601f820116820180604052508101906126ed9190613112565b151560011461272a5760405162461bcd60e51b81526020600482015260096024820152682737ba1030b236b4b760b91b60448201526064016103f9565b60408101516001600160a01b031661277d5760405162461bcd60e51b8152602060048201526016602482015275496e76616c69642062726f6b6572206164647265737360501b60448201526064016103f9565b6040808201516001600160a01b0390811660009081526001602052919091206002015416156127ee5760405162461bcd60e51b815260206004820152601560248201527f42726f6b657220616c7265616479206c6973746564000000000000000000000060448201526064016103f9565b6040808201516001600160a01b031660009081526001602052208151819061281690826131ea565b506040808301516002830180546060808701511515600160a01b027fffffffffffffffffffffff0000000000000000000000000000000000000000009092166001600160a01b039485169081179290921790925560808601518051600387015560208082015160048801558186015160058801559201516006860155818601516001860180549190941673ffffffffffffffffffffffffffffffffffffffff19918216179093556009805460009081526008909352938220805490931617909155815491906128e4836134a8565b91905055507ff359584b37b02658407bc38483636cd11063f78d92a66fc444f4b0c071dbb3c63383604051610b5592919061355a565b6040518060a001604052806060815260200160006001600160a01b0316815260200160006001600160a01b031681526020016000151581526020016129806040518060800160405280600081526020016000815260200160008152602001600081525090565b905290565b60405180610180016040528060006001600160a01b0316815260200160006001600160a01b0316815260200160006001600160a01b03168152602001606081526020016060815260200160008152602001600081526020016000815260200160008152602001600060038111156129fe576129fe612d97565b815260200160008152602001600081525090565b80356001600160a01b0381168114612a2957600080fd5b919050565b600060208284031215612a4057600080fd5b612a4982612a12565b9392505050565b600060208284031215612a6257600080fd5b5035919050565b60008060408385031215612a7c57600080fd5b612a8583612a12565b946020939093013593505050565b634e487b7160e01b600052604160045260246000fd5b60405160a0810167ffffffffffffffff81118282101715612acc57612acc612a93565b60405290565b600082601f830112612ae357600080fd5b813567ffffffffffffffff80821115612afe57612afe612a93565b604051601f8301601f19908116603f01168101908282118183101715612b2657612b26612a93565b81604052838152866020858801011115612b3f57600080fd5b836020870160208301376000602085830101528094505050505092915050565b60008060408385031215612b7257600080fd5b82359150602083013567ffffffffffffffff811115612b9057600080fd5b612b9c85828601612ad2565b9150509250929050565b60008060008060008060c08789031215612bbf57600080fd5b612bc887612a12565b9550602087013567ffffffffffffffff80821115612be557600080fd5b612bf18a838b01612ad2565b965060408901359550612c0660608a01612a12565b94506080890135915060028210612c1c57600080fd5b90925060a08801359080821115612c3257600080fd5b50612c3f89828a01612ad2565b9150509295509295509295565b6000815180845260005b81811015612c7257602081850181015186830182015201612c56565b506000602082860101526020601f19601f83011685010191505092915050565b60006101008251818552612ca882860182612c4c565b91505060208301516001600160a01b03808216602087015280604086015116604087015250506060830151151560608501526080830151612d0d6080860182805182526020810151602083015260408101516040830152606081015160608301525050565b509392505050565b602081526000612a496020830184612c92565b6000610100808352612d3c81840189612c4c565b6001600160a01b0388811660208601528716604085015285151560608501529150612d8d90506080830184805182526020810151602083015260408101516040830152606081015160608301525050565b9695505050505050565b634e487b7160e01b600052602160045260246000fd5b60048110612dbd57612dbd612d97565b9052565b60028110612dbd57612dbd612d97565b80516001600160a01b0316825260006101806020830151612dfd60208601826001600160a01b03169052565b506040830151612e1860408601826001600160a01b03169052565b506060830151816060860152612e3082860182612c4c565b91505060808301518482036080860152612e4a8282612c4c565b91505060a083015160a085015260c083015160c085015260e083015160e085015261010080840151818601525061012080840151612e8a82870182612dad565b505061014080840151612e9f82870182612dc1565b5050610160928301519390920192909252919050565b6000602080830181845280855180835260408601915060408160051b870101925083870160005b82811015612f0a57603f19888603018452612ef8858351612dd1565b94509285019290850190600101612edc565b5092979650505050505050565b60006001600160a01b03808f168352808e166020840152808d166040840152506101806060830152612f4d61018083018c612c4c565b8281036080840152612f5f818c612c4c565b9150508860a08301528760c08301528660e083015285610100830152612f89610120830186612dad565b612f97610140830185612dc1565b826101608301529d9c50505050505050505050505050565b600060808284031215612fc157600080fd5b6040516080810181811067ffffffffffffffff82111715612fe457612fe4612a93565b8060405250809150823581526020830135602082015260408301356040820152606083013560608201525092915050565b60008060a0838503121561302857600080fd5b61303183612a12565b91506130408460208501612faf565b90509250929050565b801515811461305757600080fd5b50565b60006020828403121561306c57600080fd5b813567ffffffffffffffff8082111561308457600080fd5b90830190610100828603121561309957600080fd5b6130a1612aa9565b8235828111156130b057600080fd5b6130bc87828601612ad2565b8252506130cb60208401612a12565b60208201526130dc60408401612a12565b6040820152606083013591506130f182613049565b8160608201526131048660808501612faf565b608082015295945050505050565b60006020828403121561312457600080fd5b8151612a4981613049565b600181811c9082168061314357607f821691505b60208210810361316357634e487b7160e01b600052602260045260246000fd5b50919050565b60006001600160a01b03808716835280861660208401525083604083015260806060830152612d8d6080830184612dd1565b601f8211156131e557600081815260208120601f850160051c810160208610156131c25750805b601f850160051c820191505b818110156131e1578281556001016131ce565b5050505b505050565b815167ffffffffffffffff81111561320457613204612a93565b61321881613212845461312f565b8461319b565b602080601f83116001811461324d57600084156132355750858301515b600019600386901b1c1916600185901b1785556131e1565b600085815260208120601f198616915b8281101561327c5788860151825594840194600190910190840161325d565b508582101561329a5787850151600019600388901b60f8161c191681555b5050505050600190811b01905550565b600081546132b78161312f565b8085526020600183811680156132d457600181146132ee5761331c565b60ff1985168884015283151560051b88018301955061331c565b866000528260002060005b858110156133145781548a82018601529083019084016132f9565b890184019650505b505050505092915050565b600061018061334e8461334185546001600160a01b031690565b6001600160a01b03169052565b60018301546001600160a01b039081166020860152600284015416604085015260608401819052613384818501600385016132aa565b9050838103608085015261339b81600485016132aa565b9050600583015460a0850152600683015460c0850152600783015460e0850152600883015461010085015260098301546133dc610120860160ff8316612dad565b6133f0610140860160ff8360081c16612dc1565b50600a8301546101608501528091505092915050565b82815260406020820152600061341f6040830184613327565b949350505050565b60006020828403121561343957600080fd5b5051919050565b634e487b7160e01b600052601160045260246000fd5b8082018082111561346957613469613440565b92915050565b808202811582820484141761346957613469613440565b6000826134a357634e487b7160e01b600052601260045260246000fd5b500490565b6000600182016134ba576134ba613440565b5060010190565b60006001600160a01b03808716835280861660208401525083604083015260806060830152612d8d6080830184613327565b634e487b7160e01b600052603260045260246000fd5b6001600160a01b038316815260a08101612a496020830184805182526020810151602083015260408101516040830152606081015160608301525050565b8181038181111561346957613469613440565b6001600160a01b038316815260406020820152600061341f6040830184612c9256fea164736f6c6343000811000a",
  "linkReferences": {},
  "deployedLinkReferences": {}
}